{
  "contractName": "Certificate",
  "abi": [
    {
      "inputs": [],
      "stateMutability": "nonpayable",
      "type": "constructor"
    },
    {
      "inputs": [
        {
          "internalType": "string",
          "name": "",
          "type": "string"
        }
      ],
      "name": "Certificates",
      "outputs": [
        {
          "internalType": "string",
          "name": "certificateId",
          "type": "string"
        },
        {
          "internalType": "string",
          "name": "candidateName",
          "type": "string"
        },
        {
          "internalType": "string",
          "name": "certificateName",
          "type": "string"
        },
        {
          "internalType": "string",
          "name": "course",
          "type": "string"
        },
        {
          "internalType": "string",
          "name": "grade",
          "type": "string"
        },
        {
          "internalType": "string",
          "name": "institutionName",
          "type": "string"
        },
        {
          "internalType": "address",
          "name": "issuedBy",
          "type": "address"
        }
      ],
      "stateMutability": "view",
      "type": "function",
      "constant": true
    },
    {
      "inputs": [],
      "name": "admin",
      "outputs": [
        {
          "internalType": "address",
          "name": "",
          "type": "address"
        }
      ],
      "stateMutability": "view",
      "type": "function",
      "constant": true
    },
    {
      "inputs": [
        {
          "internalType": "string",
          "name": "_certificateUniqueId",
          "type": "string"
        },
        {
          "internalType": "string",
          "name": "_certificateId",
          "type": "string"
        },
        {
          "internalType": "string",
          "name": "_candidateName",
          "type": "string"
        },
        {
          "internalType": "string",
          "name": "_certificateName",
          "type": "string"
        },
        {
          "internalType": "string",
          "name": "_course",
          "type": "string"
        },
        {
          "internalType": "string",
          "name": "_grade",
          "type": "string"
        },
        {
          "internalType": "string",
          "name": "_institutionName",
          "type": "string"
        }
      ],
      "name": "issue",
      "outputs": [],
      "stateMutability": "nonpayable",
      "type": "function"
    },
    {
      "inputs": [
        {
          "internalType": "string",
          "name": "_certificateUniqueId",
          "type": "string"
        }
      ],
      "name": "getCertificate",
      "outputs": [
        {
          "internalType": "string",
          "name": "certificateId",
          "type": "string"
        },
        {
          "internalType": "string",
          "name": "candidateName",
          "type": "string"
        },
        {
          "internalType": "string",
          "name": "certificateName",
          "type": "string"
        },
        {
          "internalType": "string",
          "name": "course",
          "type": "string"
        },
        {
          "internalType": "string",
          "name": "grade",
          "type": "string"
        },
        {
          "internalType": "string",
          "name": "institutionName",
          "type": "string"
        },
        {
          "internalType": "address",
          "name": "issuedBy",
          "type": "address"
        }
      ],
      "stateMutability": "view",
      "type": "function",
      "constant": true
    }
  ],
  "bytecode": "0x608060405234801561000f575f80fd5b50335f806101000a81548173ffffffffffffffffffffffffffffffffffffffff021916908373ffffffffffffffffffffffffffffffffffffffff1602179055506113938061005c5f395ff3fe608060405234801561000f575f80fd5b506004361061004a575f3560e01c80639d3becb21461004e578063def0010914610084578063ed0f2e75146100a0578063f851a440146100d6575b5f80fd5b61006860048036038101906100639190610c5a565b6100f4565b60405161007b9796959493929190610d5a565b60405180910390f35b61009e60048036038101906100999190610df1565b61048d565b005b6100ba60048036038101906100b59190610c5a565b6106c4565b6040516100cd9796959493929190610d5a565b60405180910390f35b6100de610aea565b6040516100eb9190610f52565b60405180910390f35b6001818051602081018201805184825260208301602085012081835280955050505050505f91509050805f01805461012b90610f98565b80601f016020809104026020016040519081016040528092919081815260200182805461015790610f98565b80156101a25780601f10610179576101008083540402835291602001916101a2565b820191905f5260205f20905b81548152906001019060200180831161018557829003601f168201915b5050505050908060010180546101b790610f98565b80601f01602080910402602001604051908101604052809291908181526020018280546101e390610f98565b801561022e5780601f106102055761010080835404028352916020019161022e565b820191905f5260205f20905b81548152906001019060200180831161021157829003601f168201915b50505050509080600201805461024390610f98565b80601f016020809104026020016040519081016040528092919081815260200182805461026f90610f98565b80156102ba5780601f10610291576101008083540402835291602001916102ba565b820191905f5260205f20905b81548152906001019060200180831161029d57829003601f168201915b5050505050908060030180546102cf90610f98565b80601f01602080910402602001604051908101604052809291908181526020018280546102fb90610f98565b80156103465780601f1061031d57610100808354040283529160200191610346565b820191905f5260205f20905b81548152906001019060200180831161032957829003601f168201915b50505050509080600401805461035b90610f98565b80601f016020809104026020016040519081016040528092919081815260200182805461038790610f98565b80156103d25780601f106103a9576101008083540402835291602001916103d2565b820191905f5260205f20905b8154815290600101906020018083116103b557829003601f168201915b5050505050908060050180546103e790610f98565b80601f016020809104026020016040519081016040528092919081815260200182805461041390610f98565b801561045e5780601f106104355761010080835404028352916020019161045e565b820191905f5260205f20905b81548152906001019060200180831161044157829003601f168201915b505050505090806006015f9054906101000a900473ffffffffffffffffffffffffffffffffffffffff16905087565b5f8054906101000a900473ffffffffffffffffffffffffffffffffffffffff1673ffffffffffffffffffffffffffffffffffffffff163373ffffffffffffffffffffffffffffffffffffffff161461051a576040517f08c379a000000000000000000000000000000000000000000000000000000000815260040161051190611012565b60405180910390fd5b5f60018860405161052b919061106a565b9081526020016040518091039020600101805461054790610f98565b905014610589576040517f08c379a0000000000000000000000000000000000000000000000000000000008152600401610580906110ca565b60405180910390fd5b6040518060e001604052808781526020018681526020018581526020018481526020018381526020018281526020013373ffffffffffffffffffffffffffffffffffffffff168152506001886040516105e2919061106a565b90815260200160405180910390205f820151815f019081610603919061128e565b506020820151816001019081610619919061128e565b50604082015181600201908161062f919061128e565b506060820151816003019081610645919061128e565b50608082015181600401908161065b919061128e565b5060a0820151816005019081610671919061128e565b5060c0820151816006015f6101000a81548173ffffffffffffffffffffffffffffffffffffffff021916908373ffffffffffffffffffffffffffffffffffffffff16021790555090505050505050505050565b6060806060806060805f806001896040516106df919061106a565b90815260200160405180910390206040518060e00160405290815f8201805461070790610f98565b80601f016020809104026020016040519081016040528092919081815260200182805461073390610f98565b801561077e5780601f106107555761010080835404028352916020019161077e565b820191905f5260205f20905b81548152906001019060200180831161076157829003601f168201915b5050505050815260200160018201805461079790610f98565b80601f01602080910402602001604051908101604052809291908181526020018280546107c390610f98565b801561080e5780601f106107e55761010080835404028352916020019161080e565b820191905f5260205f20905b8154815290600101906020018083116107f157829003601f168201915b5050505050815260200160028201805461082790610f98565b80601f016020809104026020016040519081016040528092919081815260200182805461085390610f98565b801561089e5780601f106108755761010080835404028352916020019161089e565b820191905f5260205f20905b81548152906001019060200180831161088157829003601f168201915b505050505081526020016003820180546108b790610f98565b80601f01602080910402602001604051908101604052809291908181526020018280546108e390610f98565b801561092e5780601f106109055761010080835404028352916020019161092e565b820191905f5260205f20905b81548152906001019060200180831161091157829003601f168201915b5050505050815260200160048201805461094790610f98565b80601f016020809104026020016040519081016040528092919081815260200182805461097390610f98565b80156109be5780601f10610995576101008083540402835291602001916109be565b820191905f5260205f20905b8154815290600101906020018083116109a157829003601f168201915b505050505081526020016005820180546109d790610f98565b80601f0160208091040260200160405190810160405280929190818152602001828054610a0390610f98565b8015610a4e5780601f10610a2557610100808354040283529160200191610a4e565b820191905f5260205f20905b815481529060010190602001808311610a3157829003601f168201915b50505050508152602001600682015f9054906101000a900473ffffffffffffffffffffffffffffffffffffffff1673ffffffffffffffffffffffffffffffffffffffff1673ffffffffffffffffffffffffffffffffffffffff16815250509050805f015181602001518260400151836060015184608001518560a001518660c00151975097509750975097509750975050919395979092949650565b5f8054906101000a900473ffffffffffffffffffffffffffffffffffffffff1681565b5f604051905090565b5f80fd5b5f80fd5b5f80fd5b5f80fd5b5f601f19601f8301169050919050565b7f4e487b71000000000000000000000000000000000000000000000000000000005f52604160045260245ffd5b610b6c82610b26565b810181811067ffffffffffffffff82111715610b8b57610b8a610b36565b5b80604052505050565b5f610b9d610b0d565b9050610ba98282610b63565b919050565b5f67ffffffffffffffff821115610bc857610bc7610b36565b5b610bd182610b26565b9050602081019050919050565b828183375f83830152505050565b5f610bfe610bf984610bae565b610b94565b905082815260208101848484011115610c1a57610c19610b22565b5b610c25848285610bde565b509392505050565b5f82601f830112610c4157610c40610b1e565b5b8135610c51848260208601610bec565b91505092915050565b5f60208284031215610c6f57610c6e610b16565b5b5f82013567ffffffffffffffff811115610c8c57610c8b610b1a565b5b610c9884828501610c2d565b91505092915050565b5f81519050919050565b5f82825260208201905092915050565b5f5b83811015610cd8578082015181840152602081019050610cbd565b5f8484015250505050565b5f610ced82610ca1565b610cf78185610cab565b9350610d07818560208601610cbb565b610d1081610b26565b840191505092915050565b5f73ffffffffffffffffffffffffffffffffffffffff82169050919050565b5f610d4482610d1b565b9050919050565b610d5481610d3a565b82525050565b5f60e0820190508181035f830152610d72818a610ce3565b90508181036020830152610d868189610ce3565b90508181036040830152610d9a8188610ce3565b90508181036060830152610dae8187610ce3565b90508181036080830152610dc28186610ce3565b905081810360a0830152610dd68185610ce3565b9050610de560c0830184610d4b565b98975050505050505050565b5f805f805f805f60e0888a031215610e0c57610e0b610b16565b5b5f88013567ffffffffffffffff811115610e2957610e28610b1a565b5b610e358a828b01610c2d565b975050602088013567ffffffffffffffff811115610e5657610e55610b1a565b5b610e628a828b01610c2d565b965050604088013567ffffffffffffffff811115610e8357610e82610b1a565b5b610e8f8a828b01610c2d565b955050606088013567ffffffffffffffff811115610eb057610eaf610b1a565b5b610ebc8a828b01610c2d565b945050608088013567ffffffffffffffff811115610edd57610edc610b1a565b5b610ee98a828b01610c2d565b93505060a088013567ffffffffffffffff811115610f0a57610f09610b1a565b5b610f168a828b01610c2d565b92505060c088013567ffffffffffffffff811115610f3757610f36610b1a565b5b610f438a828b01610c2d565b91505092959891949750929550565b5f602082019050610f655f830184610d4b565b92915050565b7f4e487b71000000000000000000000000000000000000000000000000000000005f52602260045260245ffd5b5f6002820490506001821680610faf57607f821691505b602082108103610fc257610fc1610f6b565b5b50919050565b7f4163636573732044656e696564000000000000000000000000000000000000005f82015250565b5f610ffc600d83610cab565b915061100782610fc8565b602082019050919050565b5f6020820190508181035f83015261102981610ff0565b9050919050565b5f81905092915050565b5f61104482610ca1565b61104e8185611030565b935061105e818560208601610cbb565b80840191505092915050565b5f611075828461103a565b915081905092915050565b7f436572746966696361746520494420616c7265616479206578697374730000005f82015250565b5f6110b4601d83610cab565b91506110bf82611080565b602082019050919050565b5f6020820190508181035f8301526110e1816110a8565b9050919050565b5f819050815f5260205f209050919050565b5f6020601f8301049050919050565b5f82821b905092915050565b5f600883026111447fffffffffffffffffffffffffffffffffffffffffffffffffffffffffffffffff82611109565b61114e8683611109565b95508019841693508086168417925050509392505050565b5f819050919050565b5f819050919050565b5f61119261118d61118884611166565b61116f565b611166565b9050919050565b5f819050919050565b6111ab83611178565b6111bf6111b782611199565b848454611115565b825550505050565b5f90565b6111d36111c7565b6111de8184846111a2565b505050565b5b81811015611201576111f65f826111cb565b6001810190506111e4565b5050565b601f82111561124657611217816110e8565b611220846110fa565b8101602085101561122f578190505b61124361123b856110fa565b8301826111e3565b50505b505050565b5f82821c905092915050565b5f6112665f198460080261124b565b1980831691505092915050565b5f61127e8383611257565b9150826002028217905092915050565b61129782610ca1565b67ffffffffffffffff8111156112b0576112af610b36565b5b6112ba8254610f98565b6112c5828285611205565b5f60209050601f8311600181146112f6575f84156112e4578287015190505b6112ee8582611273565b865550611355565b601f198416611304866110e8565b5f5b8281101561132b57848901518255600182019150602085019450602081019050611306565b868310156113485784890151611344601f891682611257565b8355505b6001600288020188555050505b50505050505056fea26469706673582212202d5fab3d782fd3659d74065f28a4df39a2941b1a3894bd50d6f2b024a6ae7f5d64736f6c63430008150033",
  "immutableReferences": {},
  "source": "// SPDX-License-Identifier: MIT\r\npragma solidity 0.8.21;\r\n\r\ncontract Certificate {\r\n    address public admin;\r\n\r\n    constructor() {\r\n        admin = msg.sender;\r\n    }\r\n\r\n    modifier onlyAdmin() {\r\n        require(msg.sender == admin, \"Access Denied\");\r\n        _;\r\n    }\r\n\r\n    struct Cert {\r\n        string certificateId;\r\n        string candidateName;\r\n        string certificateName;\r\n        string course;\r\n        string grade;\r\n        string institutionName;\r\n        address issuedBy;\r\n    }\r\n\r\n    mapping(string => Cert) public Certificates;\r\n\r\n    function issue(\r\n        string memory _certificateUniqueId, \r\n        string memory _certificateId, \r\n        string memory _candidateName,\r\n        string memory _certificateName,\r\n        string memory _course,\r\n        string memory _grade,\r\n        string memory _institutionName\r\n    ) public onlyAdmin {\r\n        require(\r\n            bytes(Certificates[_certificateUniqueId].candidateName).length == 0,\r\n            \"Certificate ID already exists\"\r\n        );\r\n\r\n        Certificates[_certificateUniqueId] = Cert(\r\n            _certificateId, \r\n            _candidateName,\r\n            _certificateName,\r\n            _course,\r\n            _grade,\r\n            _institutionName,\r\n            msg.sender\r\n        );\r\n    }\r\n\r\n    function getCertificate(string memory _certificateUniqueId)\r\n        public\r\n        view\r\n        returns (\r\n            string memory certificateId,\r\n            string memory candidateName,\r\n            string memory certificateName,\r\n            string memory course,\r\n            string memory grade,\r\n            string memory institutionName,\r\n            address issuedBy\r\n        )\r\n    {\r\n        Cert memory cert = Certificates[_certificateUniqueId];\r\n\r\n        return (\r\n            cert.certificateId,\r\n            cert.candidateName,\r\n            cert.certificateName,\r\n            cert.course,\r\n            cert.grade,\r\n            cert.institutionName,\r\n            cert.issuedBy\r\n        );\r\n    }\r\n}\r\n",
  "sourcePath": "C:\\Users\\rosha\\Desktop\\My Projects\\certi_verifier\\server\\truffle\\contracts\\Certificate.sol",
  "compiler": {
    "name": "solc",
    "version": "0.8.21+commit.d9974bed.Emscripten.clang"
  },
  "schemaVersion": "3.4.16",
  "updatedAt": "2025-03-08T13:36:36.437Z",
  "networkType": "ethereum",
  "devdoc": {
    "kind": "dev",
    "methods": {},
    "version": 1
  },
  "userdoc": {
    "kind": "user",
    "methods": {},
    "version": 1
  }
}