{
  "contractName": "Certificate",
  "abi": [
    {
      "inputs": [],
      "stateMutability": "nonpayable",
      "type": "constructor"
    },
    {
      "inputs": [
        {
          "internalType": "uint256",
          "name": "",
          "type": "uint256"
        }
      ],
      "name": "Certificates",
      "outputs": [
        {
          "internalType": "string",
          "name": "candidateName",
          "type": "string"
        },
        {
          "internalType": "string",
          "name": "certificateName",
          "type": "string"
        },
        {
          "internalType": "string",
          "name": "course",
          "type": "string"
        },
        {
          "internalType": "string",
          "name": "grade",
          "type": "string"
        },
        {
          "internalType": "string",
          "name": "institutionName",
          "type": "string"
        },
        {
          "internalType": "address",
          "name": "issuedBy",
          "type": "address"
        }
      ],
      "stateMutability": "view",
      "type": "function",
      "constant": true
    },
    {
      "inputs": [],
      "name": "admin",
      "outputs": [
        {
          "internalType": "address",
          "name": "",
          "type": "address"
        }
      ],
      "stateMutability": "view",
      "type": "function",
      "constant": true
    },
    {
      "inputs": [
        {
          "internalType": "uint256",
          "name": "_id",
          "type": "uint256"
        },
        {
          "internalType": "string",
          "name": "_candidateName",
          "type": "string"
        },
        {
          "internalType": "string",
          "name": "_certificateName",
          "type": "string"
        },
        {
          "internalType": "string",
          "name": "_course",
          "type": "string"
        },
        {
          "internalType": "string",
          "name": "_grade",
          "type": "string"
        },
        {
          "internalType": "string",
          "name": "_institutionName",
          "type": "string"
        }
      ],
      "name": "issue",
      "outputs": [],
      "stateMutability": "nonpayable",
      "type": "function"
    },
    {
      "inputs": [
        {
          "internalType": "uint256",
          "name": "_id",
          "type": "uint256"
        }
      ],
      "name": "getCertificate",
      "outputs": [
        {
          "internalType": "string",
          "name": "candidateName",
          "type": "string"
        },
        {
          "internalType": "string",
          "name": "certificateName",
          "type": "string"
        },
        {
          "internalType": "string",
          "name": "course",
          "type": "string"
        },
        {
          "internalType": "string",
          "name": "grade",
          "type": "string"
        },
        {
          "internalType": "string",
          "name": "institutionName",
          "type": "string"
        },
        {
          "internalType": "address",
          "name": "issuedBy",
          "type": "address"
        }
      ],
      "stateMutability": "view",
      "type": "function",
      "constant": true
    }
  ],
  "bytecode": "0x608060405234801561000f575f80fd5b50335f806101000a81548173ffffffffffffffffffffffffffffffffffffffff021916908373ffffffffffffffffffffffffffffffffffffffff1602179055506110a28061005c5f395ff3fe608060405234801561000f575f80fd5b506004361061004a575f3560e01c806351640fee1461004e5780639622c83614610083578063e010d73e146100b8578063f851a440146100d4575b5f80fd5b6100686004803603810190610063919061096b565b6100f2565b60405161007a96959493929190610a5f565b60405180910390f35b61009d6004803603810190610098919061096b565b610471565b6040516100af96959493929190610a5f565b60405180910390f35b6100d260048036038101906100cd9190610c0d565b610766565b005b6100dc610904565b6040516100e99190610d22565b60405180910390f35b60608060608060605f8060015f8981526020019081526020015f206040518060c00160405290815f8201805461012790610d68565b80601f016020809104026020016040519081016040528092919081815260200182805461015390610d68565b801561019e5780601f106101755761010080835404028352916020019161019e565b820191905f5260205f20905b81548152906001019060200180831161018157829003601f168201915b505050505081526020016001820180546101b790610d68565b80601f01602080910402602001604051908101604052809291908181526020018280546101e390610d68565b801561022e5780601f106102055761010080835404028352916020019161022e565b820191905f5260205f20905b81548152906001019060200180831161021157829003601f168201915b5050505050815260200160028201805461024790610d68565b80601f016020809104026020016040519081016040528092919081815260200182805461027390610d68565b80156102be5780601f10610295576101008083540402835291602001916102be565b820191905f5260205f20905b8154815290600101906020018083116102a157829003601f168201915b505050505081526020016003820180546102d790610d68565b80601f016020809104026020016040519081016040528092919081815260200182805461030390610d68565b801561034e5780601f106103255761010080835404028352916020019161034e565b820191905f5260205f20905b81548152906001019060200180831161033157829003601f168201915b5050505050815260200160048201805461036790610d68565b80601f016020809104026020016040519081016040528092919081815260200182805461039390610d68565b80156103de5780601f106103b5576101008083540402835291602001916103de565b820191905f5260205f20905b8154815290600101906020018083116103c157829003601f168201915b50505050508152602001600582015f9054906101000a900473ffffffffffffffffffffffffffffffffffffffff1673ffffffffffffffffffffffffffffffffffffffff1673ffffffffffffffffffffffffffffffffffffffff16815250509050805f015181602001518260400151836060015184608001518560a001519650965096509650965096505091939550919395565b6001602052805f5260405f205f91509050805f01805461049090610d68565b80601f01602080910402602001604051908101604052809291908181526020018280546104bc90610d68565b80156105075780601f106104de57610100808354040283529160200191610507565b820191905f5260205f20905b8154815290600101906020018083116104ea57829003601f168201915b50505050509080600101805461051c90610d68565b80601f016020809104026020016040519081016040528092919081815260200182805461054890610d68565b80156105935780601f1061056a57610100808354040283529160200191610593565b820191905f5260205f20905b81548152906001019060200180831161057657829003601f168201915b5050505050908060020180546105a890610d68565b80601f01602080910402602001604051908101604052809291908181526020018280546105d490610d68565b801561061f5780601f106105f65761010080835404028352916020019161061f565b820191905f5260205f20905b81548152906001019060200180831161060257829003601f168201915b50505050509080600301805461063490610d68565b80601f016020809104026020016040519081016040528092919081815260200182805461066090610d68565b80156106ab5780601f10610682576101008083540402835291602001916106ab565b820191905f5260205f20905b81548152906001019060200180831161068e57829003601f168201915b5050505050908060040180546106c090610d68565b80601f01602080910402602001604051908101604052809291908181526020018280546106ec90610d68565b80156107375780601f1061070e57610100808354040283529160200191610737565b820191905f5260205f20905b81548152906001019060200180831161071a57829003601f168201915b505050505090806005015f9054906101000a900473ffffffffffffffffffffffffffffffffffffffff16905086565b5f8054906101000a900473ffffffffffffffffffffffffffffffffffffffff1673ffffffffffffffffffffffffffffffffffffffff163373ffffffffffffffffffffffffffffffffffffffff16146107f3576040517f08c379a00000000000000000000000000000000000000000000000000000000081526004016107ea90610de2565b60405180910390fd5b6040518060c001604052808681526020018581526020018481526020018381526020018281526020013373ffffffffffffffffffffffffffffffffffffffff1681525060015f8881526020019081526020015f205f820151815f01908161085a9190610f9d565b5060208201518160010190816108709190610f9d565b5060408201518160020190816108869190610f9d565b50606082015181600301908161089c9190610f9d565b5060808201518160040190816108b29190610f9d565b5060a0820151816005015f6101000a81548173ffffffffffffffffffffffffffffffffffffffff021916908373ffffffffffffffffffffffffffffffffffffffff160217905550905050505050505050565b5f8054906101000a900473ffffffffffffffffffffffffffffffffffffffff1681565b5f604051905090565b5f80fd5b5f80fd5b5f819050919050565b61094a81610938565b8114610954575f80fd5b50565b5f8135905061096581610941565b92915050565b5f602082840312156109805761097f610930565b5b5f61098d84828501610957565b91505092915050565b5f81519050919050565b5f82825260208201905092915050565b5f5b838110156109cd5780820151818401526020810190506109b2565b5f8484015250505050565b5f601f19601f8301169050919050565b5f6109f282610996565b6109fc81856109a0565b9350610a0c8185602086016109b0565b610a15816109d8565b840191505092915050565b5f73ffffffffffffffffffffffffffffffffffffffff82169050919050565b5f610a4982610a20565b9050919050565b610a5981610a3f565b82525050565b5f60c0820190508181035f830152610a7781896109e8565b90508181036020830152610a8b81886109e8565b90508181036040830152610a9f81876109e8565b90508181036060830152610ab381866109e8565b90508181036080830152610ac781856109e8565b9050610ad660a0830184610a50565b979650505050505050565b5f80fd5b5f80fd5b7f4e487b71000000000000000000000000000000000000000000000000000000005f52604160045260245ffd5b610b1f826109d8565b810181811067ffffffffffffffff82111715610b3e57610b3d610ae9565b5b80604052505050565b5f610b50610927565b9050610b5c8282610b16565b919050565b5f67ffffffffffffffff821115610b7b57610b7a610ae9565b5b610b84826109d8565b9050602081019050919050565b828183375f83830152505050565b5f610bb1610bac84610b61565b610b47565b905082815260208101848484011115610bcd57610bcc610ae5565b5b610bd8848285610b91565b509392505050565b5f82601f830112610bf457610bf3610ae1565b5b8135610c04848260208601610b9f565b91505092915050565b5f805f805f8060c08789031215610c2757610c26610930565b5b5f610c3489828a01610957565b965050602087013567ffffffffffffffff811115610c5557610c54610934565b5b610c6189828a01610be0565b955050604087013567ffffffffffffffff811115610c8257610c81610934565b5b610c8e89828a01610be0565b945050606087013567ffffffffffffffff811115610caf57610cae610934565b5b610cbb89828a01610be0565b935050608087013567ffffffffffffffff811115610cdc57610cdb610934565b5b610ce889828a01610be0565b92505060a087013567ffffffffffffffff811115610d0957610d08610934565b5b610d1589828a01610be0565b9150509295509295509295565b5f602082019050610d355f830184610a50565b92915050565b7f4e487b71000000000000000000000000000000000000000000000000000000005f52602260045260245ffd5b5f6002820490506001821680610d7f57607f821691505b602082108103610d9257610d91610d3b565b5b50919050565b7f4163636573732044656e696564000000000000000000000000000000000000005f82015250565b5f610dcc600d836109a0565b9150610dd782610d98565b602082019050919050565b5f6020820190508181035f830152610df981610dc0565b9050919050565b5f819050815f5260205f209050919050565b5f6020601f8301049050919050565b5f82821b905092915050565b5f60088302610e5c7fffffffffffffffffffffffffffffffffffffffffffffffffffffffffffffffff82610e21565b610e668683610e21565b95508019841693508086168417925050509392505050565b5f819050919050565b5f610ea1610e9c610e9784610938565b610e7e565b610938565b9050919050565b5f819050919050565b610eba83610e87565b610ece610ec682610ea8565b848454610e2d565b825550505050565b5f90565b610ee2610ed6565b610eed818484610eb1565b505050565b5b81811015610f1057610f055f82610eda565b600181019050610ef3565b5050565b601f821115610f5557610f2681610e00565b610f2f84610e12565b81016020851015610f3e578190505b610f52610f4a85610e12565b830182610ef2565b50505b505050565b5f82821c905092915050565b5f610f755f1984600802610f5a565b1980831691505092915050565b5f610f8d8383610f66565b9150826002028217905092915050565b610fa682610996565b67ffffffffffffffff811115610fbf57610fbe610ae9565b5b610fc98254610d68565b610fd4828285610f14565b5f60209050601f831160018114611005575f8415610ff3578287015190505b610ffd8582610f82565b865550611064565b601f19841661101386610e00565b5f5b8281101561103a57848901518255600182019150602085019450602081019050611015565b868310156110575784890151611053601f891682610f66565b8355505b6001600288020188555050505b50505050505056fea264697066735822122006bc9cbe52ea381fb3df135bc75535dde42a5a60da2a99a924362a797db756f164736f6c63430008150033",
  "immutableReferences": {},
  "source": "// SPDX-License-Identifier: MIT\r\npragma solidity 0.8.21;\r\n\r\ncontract Certificate {\r\n    address public admin;\r\n\r\n    constructor() {\r\n        admin = msg.sender;\r\n    }\r\n\r\n    modifier onlyAdmin() {\r\n        require(msg.sender == admin, \"Access Denied\");\r\n        _;\r\n    }\r\n\r\n    struct Cert {\r\n        string candidateName;\r\n        string certificateName;\r\n        string course;\r\n        string grade;\r\n        string institutionName;\r\n        address issuedBy;\r\n    }\r\n\r\n    mapping(uint256 => Cert) public Certificates;\r\n\r\n    function issue(\r\n        uint256 _id,\r\n        string memory _candidateName,\r\n        string memory _certificateName,\r\n        string memory _course,\r\n        string memory _grade,\r\n        string memory _institutionName\r\n    ) public onlyAdmin {\r\n        Certificates[_id] = Cert(\r\n            _candidateName,\r\n            _certificateName,\r\n            _course,\r\n            _grade,\r\n            _institutionName,\r\n            msg.sender\r\n        );\r\n    }\r\n\r\n    function getCertificate(uint256 _id)\r\n        public\r\n        view\r\n        returns (\r\n            string memory candidateName,\r\n            string memory certificateName,\r\n            string memory course,\r\n            string memory grade,\r\n            string memory institutionName,\r\n            address issuedBy\r\n        )\r\n    {\r\n        Cert memory cert = Certificates[_id];\r\n\r\n        return (\r\n            cert.candidateName,\r\n            cert.certificateName,\r\n            cert.course,\r\n            cert.grade,\r\n            cert.institutionName,\r\n            cert.issuedBy\r\n        );\r\n    }\r\n}\r\n",
  "sourcePath": "C:\\Users\\rosha\\Desktop\\My Projects\\certi_verifier\\server\\truffle\\contracts\\Certificate.sol",
  "compiler": {
    "name": "solc",
    "version": "0.8.21+commit.d9974bed.Emscripten.clang"
  },
  "schemaVersion": "3.4.16",
  "updatedAt": "2025-03-08T11:09:26.904Z",
  "networkType": "ethereum",
  "devdoc": {
    "kind": "dev",
    "methods": {},
    "version": 1
  },
  "userdoc": {
    "kind": "user",
    "methods": {},
    "version": 1
  }
}